:100000000C94A9000C94D1000C94D1000C94D10054
:100010000C94D1000C94D1000C94D1000C94D1001C
:100020000C94D1000C94D1000C94D1000C943F247A
:100030000C94D1000C94D1000C94D1000C94D100FC
:100040000C9438250C94D1000C9465270C94B3279C
:100050000C94D1000C94D1000C94D1000C94D100DC
:100060000C94D1000C94D100084AD73B3BCE016ED2
:1000700084BCBFFDC12F3D6C74319ABD56833DDAFF
:100080003D00C77F11BED9E4BB4C3E916BAAAABE0E
:10009000000000803F05A84CCDB2D44EB93836A937
:1000A000020C50B9918688083CA6AAAA2ABE000074
:1000B00000803F00000000240027002A000000000C
:1000C00000250028002B0000000000230026002946
:1000D00000040404040404040402020202020203F1
:1000E00003030303030102040810204080010204FB
:1000F000081020010204081020000000070002017F
:1001000000000304060000000000000000494E4605
:10011000494E4954594E414ECDCCCC3D0AD7233C93
:1001200017B7D13877CC2B329595E6241FB14F0AFB
:10013000000020410000C84200401C4620BCBE4CCC
:10014000CA1B0E5AAEC59D74BA024E0FA11D1F29BF
:100150009A1D11241FBECFEFD8E0DEBFCDBF13E044
:10016000A0E0B1E0E0E0F8E602C005900D92A63C08
:10017000B107D9F716E0A6ECB3E001C01D92A03795
:10018000B107E1F711E0C0E5D1E004C02297FE011C
:100190000E94AD33C834D107C9F70E9475290C9469
:1001A000F3330C940000A0E0B0E0E9EDF0E00C9433
:1001B000C233EC015B016115710519F0FB019183FC
:1001C0008083F9908F2D90E00E94B133892BC9F77D
:1001D000FDE2FF1621F4F990EE24E39405C02BE232
:1001E000F21609F4F990EE248E0101501040C80176
:1001F0006DE071E043E050E00E943302892B01F58D
:100200008E010E5F1F4FC80160E171E045E050E0D4
:100210000E943302892B19F48E01095F1F4FA1142C
:10022000B10419F0F50111830083E0FC04C070E013
:1002300090E080E814C070E090E080E86FEF08C1C3
:10024000C80165E171E043E050E00E943302892B70
:1002500069F4A114B10429F470E090E080EC6FE738
:10026000F7C02296F501D183C083F6CF8824992464
:1002700040E050E060E070E0EF2DE053EA30A0F5A0
:10028000F2E0EF2A8E2D90E09C0128703070E2FEA3
:1002900006C0232B79F50894811C911C2BC0232BBD
:1002A00019F0089481089108DB01CA0112E0880F57
:1002B000991FAA1FBB1F1A95D1F7480F591F6A1F14
:1002C0007B1F440F551F661F771F4E0F511D611D69
:1002D000711D483929E9520729E9620729E17207A6
:1002E00048F084E0E82A06C0EE3F31F4E3FC39C070
:1002F00098E0E92AF990C0CFE53311F0E53189F5AE
:1003000029912D3219F4E0E1EE2A05C02B3219F0C3
:1003100081E090E003C0299182E090E0E22FE05379
:10032000EA3018F0C81BD90B1CC020E030E0FCE01C
:1003300020383F075CF4C901880F991F880F991F67
:10034000280F391F220F331F2E0F311DE991E05363
:10035000EA3068F3E4FE03C0309521953F4F820EEA
:10036000931ECE2CDD24E1FE07C0A114B10421F0C0
:100370002197F501D183C083CB01BA010E94E030FF
:100380007B018C01F3E0CF22DD2423E0C216D104EF
:1003900021F417FB109517F9109557016801C80152
:1003A000B70120E030E040E050E00E944030882378
:1003B00009F44AC097FE0DC02CE2E22E21E0F22E95
:1003C0009094819491089394C0E2D0E000E010E012
:1003D00012C094E4E92E91E0F92EF6CFF7012591B1
:1003E000359145915491C601B5010E9446325B0199
:1003F0006C018C1A9D0A8C169D0684F7D595C795BD
:100400000F5F1F4F0630110529F08CEF9FEFE80EAC
:10041000F91EF1CFC501D6017C018D018C2D880F0D
:100420008D2D881F8F3F51F0C601B50120E030E0CF
:1004300040E050E00E944030882331F482E290E0B6
:1004400090936F0680936E067E2D9F2D802F612FD7
:10045000272F392F482F562FB901CA01CDB7DEB744
:10046000ECE00C94DE33FB01DC014150504088F09D
:100470008D9181341CF08B350CF4805E6591613474
:100480001CF06B350CF4605E861B611171F3990BE7
:100490000895881BFCCFFB01DC0102C001900D9286
:1004A00041505040D8F70895FB01DC0101900D92B6
:1004B0000020E1F708950E94463220E030E040E855
:1004C0005EE30E9446320E94AF309B01AC0182E0A5
:1004D000220F331F441F551F8A95D1F7B901CA0156
:1004E0000895EF92FF920F931F937B018C01CA0135
:1004F000B90124E030E040E050E00E947C3392E01B
:10050000220F331F441F551F9A95D1F7CA01B90115
:100510000E94E230A80197010E9447301F910F917D
:10052000FF90EF900895883549F44093200450934C
:10053000210460932204709323040895893549F4BB
:100540004093240450932504609326047093270459
:1005500008958A3541F44093280450932904609308
:100560002A0470932B0408959093390480933804DF
:1005700008950895EF92FF920F931F938AE394E0FA
:1005800068EC70E042E050E023E030E004E010E08E
:10059000F5E0EF2EF12C0E94FD2484E594E068EC58
:1005A00070E046E050E027E030E008E010E0E9E0ED
:1005B000EE2EF12C0E94FD248EE694E00E94CB22C8
:1005C00081E794E00E94CB221F910F91FF90EF9062
:1005D0000895611571058105910511F00E9480252E
:1005E0000895EF92FF920F931F937B018C01611589
:1005F00071058105910519F180E0E81680E4F8069F
:1006000080E0080780E01807B8F0C801B70128EEBD
:1006100033E040E050E00E945A33CA01B9010E9421
:10062000E902C801B70128EE33E040E050E00E9443
:100630005A33DC01CB0101C0C7010E94D9251F91AB
:100640000F91FF90EF9008958E5F9F4F09F00EC1BC
:1006500087E496E060E071E00E94132B6091FA035A
:100660007091FB0387E496E04AE050E00E94E12AA3
:1006700087E496E062E071E00E94132B6091FC0336
:100680007091FD0387E496E04AE050E00E94E12A81
:1006900087E496E062E071E00E94132B6091000411
:1006A0007091010487E496E04AE050E00E94E12A5C
:1006B00087E496E062E071E00E94132B60910204EF
:1006C0007091030487E496E04AE050E00E94E12A3A
:1006D00087E496E062E071E00E94132B60910C04C5
:1006E00070910D0487E496E04AE050E00E94E12A10
:1006F00087E496E062E071E00E94132B60910E04A3
:1007000070910F0487E496E04AE050E00E94E12AED
:1007100087E496E062E071E00E94132B609106048A
:100720007091070487E496E04AE050E00E94E12AD5
:1007300087E496E062E071E00E94132B6091080468
:100740007091090487E496E04AE050E00E94E12AB3
:1007500087E496E062E071E00E94132B6091180438
:100760007091190487E496E04AE050E00E94E12A83
:1007700087E496E062E071E00E94132B60911A0416
:1007800070911B0487E496E04AE050E00E94E12A61
:1007900087E496E062E071E00E94132B60911C04F4
:1007A00070911D0487E496E04AE050E00E94E12A3F
:1007B00087E496E062E071E00E94132B60911E04D2
:1007C00070911F0487E496E04AE050E00E94E12A1D
:1007D00087E496E062E071E00E94132B40912004D0
:1007E00050912104609122047091230487E496E0E3
:1007F00022E030E00E94FA2B87E496E062E071E0AC
:100800000E94132B409124045091250460912604EA
:100810007091270487E496E022E030E00E94FA2BF2
:1008200087E496E062E071E00E94132B6091380447
:100830007091390487E496E04AE050E00E94E12A92
:1008400087E496E062E071E00E94132B6091F80368
:100850007091F90387E496E04AE050E00E94E12AB3
:1008600087E496E064E071E00E94132B0895CF9333
:10087000DF938E5F9F4F59F5C0E0D0E089EF94E0A1
:10088000BE010E94CD0DFE01E653FC4F80832196F0
:10089000C430D10599F78091CA039091CB03A09100
:1008A000CC03B091CD0388559F44A244B24479F45F
:1008B000C0E0D0E089EF94E0BE010E94CD0DFE01C2
:1008C000E653FC4F80832196C037D10599F7DF911D
:1008D000CF910895CF93DF932FEF8E3F9207B1F022
:1008E0002FEF8F3F920709F445C08D5F9F4F09F0AE
:1008F00050C0C0E0D0E089EF94E0BE0140E00E942B
:10090000D40D2196C037D105B1F743C088E59FE4E7
:10091000A2E4B2E48093CA039093CB03A093CC03E8
:10092000B093CD03C0E0D0E0FE01E653FC4F89EF69
:1009300094E0BE0140810E94D40D2196C037D105BC
:1009400099F74091CA035091CB036091CC03709109
:10095000CD0387E496E02AE030E00E94CD2A87E4C8
:1009600096E048E55FE462E472E42AE030E00E9449
:10097000CD2A0FC0C4E0D0E0FE01E653FC4F89EF62
:1009800094E0BE0140810E94D40D2196CE32D10563
:1009900099F7DF91CF9108954F925F926F927F9276
:1009A0008F929F92AF92BF92CF92DF92EF92FF927F
:1009B0000F931F93CF93DF933A019C0143E0880F7D
:1009C000991F4A95E1F7220F331F820F931F2C01C5
:1009D000CB017B0113E0EE0CFF1C1A95E1F7880FA9
:1009E000991FE80EF91E00E010E04301AA2497FCCD
:1009F000A094BA2CACEBCA2EA2E0DA2ECE18DF08F7
:100A000049C086E091E06DE070E00E949913CE1538
:100A1000DF054CF0CC16DD0634F00E151F051CF07A
:100A2000C016D10604F5C801B2010E944733892BD4
:100A300051F0CE01B2010E944733892B21F082E0B0
:100A4000CB3BD80781F484E191E068E070E00E943C
:100A50009913C501B4010E94E9028DE191E063E0C0
:100A600070E00E949913219682E0CC3BD80749F6AA
:100A700081E291E06DE070E00E9499138FE291E0D5
:100A80006EE070E00E9499130F5F1F4F82E00C3BF5
:100A9000180719F0C0E0D0E0B4CFC0E0D0E0730197
:100AA0000027F7FC0095102F86E091E06DE070E0E4
:100AB0000E94991384E191E068E070E00E9499132C
:100AC000C801B7010E94E9028DE191E063E070E0A6
:100AD0000E949913219682E0CC3BD80729F7DF9139
:100AE000CF911F910F91FF90EF90DF90CF90BF902B
:100AF000AF909F908F907F906F905F904F900895F0
:100B000081E591E062E170E00E94991383E691E053
:100B100063E170E00E94991386E791E063E170E081
:100B20000E94991389E891E062E170E00E949913B4
:100B300008958BE991E063E070E00E9499138FE9DA
:100B400091E063E070E00E94991383EA91E063E032
:100B500070E00E94991308958091120461E00E9450
:100B6000BD268091140461E00E94BD268091160488
:100B700061E00E94BD2608958091120460E00E9409
:100B8000BD268091140460E00E94BD268091160469
:100B900060E00E94BD260895BC012091F8033091C9
:100BA000F9032115310521F021303105B9F40AC0CE
:100BB000009719F48091180409C0809118040E94CC
:100BC0001E260895009731F480911A0460E00E9477
:100BD000BD26089580911A040E941E260895BC0126
:100BE000009711F06FEF70E08091F8039091F90396
:100BF000009719F00197F9F40EC06F3F710519F0D5
:100C00006115710519F4809118040DC080911804C4
:100C10000E941E2608956F3F710519F06115710538
:100C200031F480911A0461E00E94BD2608958091FC
:100C30001A040E941E260895DF93CF93CDB7DEB726
:100C40002A970FB6F894DEBF0FBECDBF282F1982AA
:100C50001A821B821C82FE01359686E0DF011D92FE
:100C60008A95E9F790E024C0E60FF71F80819F5F27
:100C70008217F1F4DE0111969E01255F3F4F09C0F6
:100C8000E60FF71F8081882361F0803251F08D9349
:100C90009F5FE92FF0E0E417F5071CF4A217B307F4
:100CA00079F7CE01019660E070E00E94D30009C0A0
:100CB000E92FF0E0E417F507BCF260E070E080E0B7
:100CC00090E02A960FB6F894DEBF0FBECDBFCF914D
:100CD000DF910895AF92BF92CF92DF92EF92FF9291
:100CE0000F931F93CF93DF935C01EB018A0180E5A3
:100CF0000E941C060E94AF306B01161617061CF0EE
:100D0000E2E3CE2ED12C84E4BE01A8010E941C0691
:100D10000E94AF307B01161617061CF073E0E72E19
:100D2000F12C8DE4BE01A8010E941C060E94AF3088
:100D3000EB011616170614F0C5E0D0E00E949905E5
:100D400081E0A816B10431F082E0A816B10409F0E0
:100D500046C020C0C701BE01A6010E94CC048FE09E
:100D600092E061E170E00E9499130E94800581E2A7
:100D700092E066E170E00E94991388E392E063E0FC
:100D800070E00E9499138CE392E061E170E00E94B0
:100D9000991325C08BE492E060E170E00E94991302
:100DA0008CE592E061E170E00E9499138EE692E09A
:100DB00061E170E00E94991380E892E060E170E0E8
:100DC0000E94991381E992E065E170E00E94991315
:100DD00087EA92E065E170E00E949913DBCFDF9132
:100DE000CF911F910F91FF90EF90DF90CF90BF9028
:100DF000AF9008958091180461E00E947E26809152
:100E00001A0461E00E947E268091180460E00E942E
:100E1000BD2680911A0460E00E94BD2608958136A7
:100E200011F0813421F47093190460931804823610
:100E300011F0823421F470931B0460931A040E9411
:100E4000FA0608958091FA0361E00E947E2680915F
:100E5000000461E00E947E268091120461E00E94FD
:100E60007E2680910C0462E00E947E26809106041A
:100E700062E00E947E268091FC0361E00E947E2653
:100E80008091020461E00E947E268091140461E05A
:100E90000E947E2680910E0462E00E947E26809150
:100EA000080462E00E947E268091FE0361E00E94B9
:100EB0007E268091040461E00E947E2680911604C3
:100EC00061E00E947E268091100462E00E947E26EE
:100ED00080910A0462E00E947E260895883529F4F4
:100EE00070930D0460930C040DC0893529F4709340
:100EF0000F0460930E0406C08A3521F47093110428
:100F0000609310040E9422070895883529F4709395
:100F10000704609306040DC0893529F47093090411
:100F20006093080406C08A3521F470930B04609323
:100F30000A040E9422070895883529F47093010459
:100F4000609300040DC0893529F470930304609305
:100F5000020406C08A3521F47093050460930404EA
:100F60000E9422070895883529F47093FB0360934B
:100F7000FA030DC0893529F47093FD036093FC03D7
:100F800006C08A3521F47093FF036093FE030E942C
:100F900022070895CF92DF92EF92FF920F931F9353
:100FA000D82EC62E042F0E9411277C018C2D0E9462
:100FB00011279701220F331F282B392B10E0000F28
:100FC000111F000F111F202B312B2330310501F190
:100FD000243031054CF421303105A9F0223031059F
:100FE000A4F4232B71F018C02530310551F02530C1
:100FF00031055CF02630310559F02730310561F4B8
:1010000002C08D2D03C08C2D04C08C2D61E002C068
:101010008D2D60E00E94BD261F910F91FF90EF90F3
:10102000DF90CF9008957F928F929F92AF92BF9260
:10103000CF92DF92EF92FF920F931F93CF93DF93A4
:101040004C015B016A01722EEE0CFF1C001F111F88
:10105000C0E0D0E00AC0C401B501472D0E94CA0714
:10106000C801B7010E94F1022196CC15DD059CF361
:10107000DF91CF911F910F91FF90EF90DF90CF9074
:10108000BF90AF909F908F907F900895CF93DF9304
:10109000EC0197FD0CC00E941127892B41F48C2F85
:1010A0000E94112720E0892B19F421E001C020E0E3
:1010B000822FDF91CF910895CF92EF92FF920F93FD
:1010C0001F93CF93DF93EB01E216F3060407150796
:1010D00059F00E944608882381F0CC2071F404C0A6
:1010E00080E0CC2011F40EC080E0DF91CF911F9101
:1010F0000F91FF90EF90CF900895CE010E94460887
:10110000882371F781E0F1CF2F923F924F925F9247
:101110006F927F928F929F92AF92BF92CF92DF9207
:10112000EF92FF920F931F93DF93CF93CDB7DEB76C
:1011300062970FB6F894DEBF0FBECDBF988B8F8736
:101140001B015A8749870B871C872D873E870E9482
:10115000AC05A985BA852D913D914D915C91139770
:1011600014966D917D918D919C91179762177307DD
:101170008407950714F4CA01B9016093C6037093FC
:10118000C7038093C8039093C903E985FA85208536
:10119000318542855385621773078407950714F4D8
:1011A000CA01B9016093C6037093C7038093C80353
:1011B0009093C90322E030E040E050E00E947C338D
:1011C000882499245401821A930AA40AB50A1A821F
:1011D000D1012D913D914D915C91EF85F8898081F0
:1011E0009181A281B381281739074A075B0714F060
:1011F000F1E0FA83DD24D10114962D913D914D91BA
:101200005C911797EF85F88984819581A681B781D4
:10121000281739074A075B0714F0DD24D394198295
:10122000D10118962D913D914D915C911B97EF85C1
:10123000F88980859185A285B385281739074A07E3
:101240005B0714F0F1E0F9838D829E82AF82B8864D
:10125000240135016091060470910704AF85B889B7
:101260002D913D914D915C91F101E080F1800281E1
:10127000138180910C0490910D04CA800E945C0837
:101280008C836091080470910904AF85B889149625
:101290002D913D914D915C911797F101E480F5807E
:1012A0000681178180910E0490910F04CD2C0E942D
:1012B0005C088B8360910A0470910B04AF85B88938
:1012C00018962D913D914D915C911B97F101E08411
:1012D000F184028513858091100490911104C980D6
:1012E0000E945C08C82EFC81FF23F1F1E985FA8594
:1012F00080819181A281B381880E991EAA1EBB1E96
:10130000181419041A041B040CF0C8C060910004DE
:10131000709101048091FA039091FB034A810E942D
:10132000CA078091C6039091C703A091C803B091EA
:10133000C903881A990AAA0ABB0AEF85F88980812D
:101340009181A281B381FA81FF2321F00196A11D31
:10135000B11D03C00197A109B109EF85F889808308
:101360009183A283B3839AC080910C0490910D0461
:101370000E944608882349F480910604909107044E
:101380000E944608882309F489C0E090FA04F0908E
:10139000FB040091FC041091FD04AF85B8892D91E8
:1013A0003D914D915C91C801B7010E94710220E00E
:1013B00030E040E251E40E9446320E94AF300E9489
:1013C000E23020E030E040E251E40E944730BA8150
:1013D000BB2339F420E030E040EC5FE30E94672F4C
:1013E00006C020E030E040EC5FE30E94662F60938F
:1013F0001205709313058093140590931505C80189
:10140000B7012091120530911305409114055091B8
:1014100015050E94463220E030E040E85EE30E947D
:1014200046320E94AF3002E0660F771F881F991F77
:101430000A95D1F7F10160837183828393832091B0
:10144000FA033091FB033A8B298BA0910004B091F1
:101450000104EF85F88920813181428153817B012C
:101460008C01E21AF30A040B150B17FF08C0109544
:101470000095F094E094E11CF11C011D111D20E089
:10148000FA81FF2309F421E089899A89BD01A70126
:10149000EB84FC840D851E850E9413082B8122237A
:1014A00009F44DC0E985FA8584819581A681B781CB
:1014B0002D813E814F815885280F391F4A1F5B1FA0
:1014C0002D833E834F835887121613061406150684
:1014D0000CF0CFC060910204709103048091FC0372
:1014E0009091FD034D2D0E94CA078091C6039091F3
:1014F000C703A091C803B091C9032D813E814F81DC
:101500005885281B390B4A0B5B0B2D833E834F8379
:101510005887EF85F88984819581A681B781DD2080
:1015200021F00196A11DB11D05C00197A109B109C6
:10153000EF85F88984839583A683B7839AC08091C9
:101540000E0490910F040E944608882349F480916C
:101550000804909109040E944608882309F489C070
:10156000E090FE04F090FF04009100051091010549
:10157000AF85B88914962D913D914D915C91179747
:10158000C801B7010E94710220E030E040E251E45E
:101590000E9446320E94AF300E94E23020E030E0EC
:1015A00040E251E40E944730DD2039F420E030E091
:1015B00040EC5FE30E94672F06C020E030E040EC83
:1015C0005FE30E94662F6093160570931705809362
:1015D000180590931905C801B7012091160530919F
:1015E000170540911805509119050E94463220E0D8
:1015F00030E040E85EE30E9446320E94AF3012E0E5
:10160000660F771F881F991F1A95D1F7F101648320
:101610007583868397832091FC033091FD033A8B79
:10162000298BA0910204B0910304EF85F8892481ED
:101630003581468157817B018C01E21AF30A040B44
:10164000150B17FF08C010950095F094E094E11C6D
:10165000F11C011D111D20E0DD2009F421E0898924
:101660009A89BD01A701EB84FC840D851E850E942B
:101670001308CC20E1F1E985FA8580859185A28562
:10168000B385480E591E6A1E7B1E141415041604D9
:1016900017046CF560910404709105048091FE03B9
:1016A0009091FF0349810E94CA078091C6039091DF
:1016B000C703A091C803B091C903481A590A6A0A1E
:1016C0007B0AEF85F88980859185A285B385F981AC
:1016D000FF2321F00196A11DB11D03C00197A109AF
:1016E000B109EF85F88980879187A287B3876B85D9
:1016F0007C858D859E850E94F102FC81FF2309F087
:10170000A9CD2B81222309F0A5CDCC2009F0A2CDB3
:1017100062960FB6F894DEBF0FBECDBFCF91DF91BA
:101720001F910F91FF90EF90DF90CF90BF90AF90FF
:101730009F908F907F906F905F904F903F902F90F1
:1017400008959C0180911C0490911D0482179307B9
:1017500029F48EE694E00E945123089580911E049E
:1017600090911F048217930721F481E794E00E946F
:1017700051230895BC018091F8039091F9038230C0
:10178000910519F0039771F407C080911C049091A2
:101790001D040E94A10B089580911E0490911F04C6
:1017A0000E94A10B08952091F8033091F90337FDB1
:1017B0000BC02230310534F0243031052CF40E9466
:1017C000BA0B08950E94CC0508952091F80330913A
:1017D000F90337FD0BC02230310534F024303105D8
:1017E0002CF40E94BA0B08950E94EF0508958EE62E
:1017F00094E00E94E52281E794E00E94E5220895AA
:1018000060911C0470911D048EE694E00E943824BF
:1018100060911E0470911F0481E794E00E943824B7
:101820000895813611F0813421F470931D04609382
:101830001C04823611F0823421F470931F046093EB
:101840001E040E94000C0895CF93DF93EC01809159
:10185000F8039091F9030297029738F0CE010297AE
:10186000029740F40E94000C05C0C230D10510F46C
:101870000E94F70BD093F903C093F803DF91CF9147
:1018800008951092CA031092CB031092CC031092C9
:10189000CD031092F9031092F80382E090E0909348
:1018A000FB038093FA0383E090E09093FD03809321
:1018B000FC038FEF9FEF9093FF038093FE0325E0DF
:1018C00030E0309301042093000426E030E03093B0
:1018D00003042093020490930504809304049093DE
:1018E000070480930604909309048093080490935E
:1018F0000B0480930A0490930D0480930C0490933E
:101900000F0480930E04909311048093100490931D
:1019100013048093120490931504809314049093FD
:101920001704809316048CE090E090931904809340
:10193000180490931B0480931A048FE090E0909316
:101940001D0480931C0484E190E090931F04809315
:101950001E0480E090E0A0EAB2E48093200490931B
:101960002104A0932204B093230480932404909331
:101970002504A0932604B093270485E69AEFAEE2EF
:10198000B3E48093280490932904A0932A04B0938D
:101990002B0480E090E0AEEFB4E480932C049093AD
:1019A0002D04A0932E04B0932F04809330049093C1
:1019B0003104A0933204B09333048EE893EEAAE886
:1019C000B5E48093340490933504A0933604B09327
:1019D000370488EB9BE090933904809338048EEFB2
:1019E0009FEF0E9437048091F8039091F9030297CA
:1019F00018F40E94FA0602C00E94000C0E942207FE
:101A00000E94BC0508950F931F930E94850D0E94AC
:101A1000550D8A3059F40E947D0D8C010E94800D75
:101A2000BC01C8010E9499130E946D0D0E94550DC2
:101A30008B3359F40E947D0D8C010E94800DBC01F6
:101A4000C8010E94471F0E946D0D0E94600D892BE6
:101A500011F00E94BC050E94B9021F910F910895D8
:101A60000F931F930E94B50D0E94410C0E946F12AC
:101A70000E946A1D07E416E0C80162E173E00E945B
:101A8000FD2BC80165E373E00E94FD2B8BE393E01F
:101A900063E070E00E9499131F910F9108950E94D6
:101AA000030D08950E94300D08958091F5049091E2
:101AB000F604892B11F480E0089580917404089550
:101AC00020E030E08091F7049091F8048151974232
:101AD00014F021E030E0C901089580E0E82FF0E043
:101AE000EB58FB4F10828F5F8038C1F71092F604DD
:101AF0001092F50410927404089585E794E0089517
:101B00008091F5049091F604089587E496E00E9490
:101B1000752818161906DCF487E496E00E94A628BA
:101B2000282F809374041092F8041092F7048A30DE
:101B3000D9F08091F5049091F604FC01EB58FB4F2D
:101B4000208301969093F6048093F5040895809184
:101B5000F7049091F80401969093F8048093F704A9
:101B600085E090E00E94D925089587E496E040E062
:101B700052EC61E070E00E94EE2780E0E82FF0E098
:101B8000EB58FB4F10828F5F8038C1F71092F6043C
:101B90001092F504109274040895F999FECF72BD65
:101BA00061BDF89A80B50895F999FECF1FBA72BD4C
:101BB00061BD40BD0FB6F894FA9AF99A0FBE089528
:101BC0002F923F924F925F926F927F928F929F924D
:101BD000AF92BF92CF92DF92EF92FF920F931F933B
:101BE000DF93CF93CDB7DEB76C970FB6F894DEBF17
:101BF0000FBECDBF6C0149875A876B877C8719015F
:101C0000DC011896ED90FD900D911C911B978D9124
:101C10009D910D90BC91A02D8D839E83AF83B8873D
:101C2000C801B7012D813E814F8158850E94662FE2
:101C300020E030E040E450E40E9446326D877E8729
:101C40008F87988BF6016089718982899389A801B1
:101C500097010E94662F20E030E040E450E40E94AB
:101C600046322D853E854F8558890E94662F698BA7
:101C70007A8B8B8B9C8B28E030E0C20ED31ED60172
:101C80001496ED90FD900D911C911797E8EFFFEFE2
:101C9000CE0EDF1ED60114968D919D910D90BC91B4
:101CA000A02D89839A83AB83BC83C801B7012981A6
:101CB0003A814B815C810E94662F20E030E040E455
:101CC00050E40E9446324B015C01E0E1F0E0CE0EB0
:101CD000DF1ED60114966D917D918D919C91179781
:101CE000A80197010E94662F20E030E040E450E414
:101CF0000E944632A50194010E94662F6D8B7E8B57
:101D00008F8B988F69857A858B859C859B01AC012B
:101D10000E9446322B013C0129853A854B855C8522
:101D20000E944632698F7A8F8B8F9C8FE8E0F0E0BB
:101D3000CE0EDF1ED60114966D917D918D919C91F2
:101D40001797E8EEFFEFCE0EDF1E29813A814B8117
:101D50005C810E94662FA50194010E94662F2D8947
:101D60003E894F89588D0E94662F298D3A8D4B8D63
:101D70005C8D0E9446327B018C016D897E898F8942
:101D8000988DA30192010E9446329B01AC01C801CB
:101D9000B7010E94672F7B018C01C501B401298521
:101DA0003A854B855C850E9446329B01AC01C80197
:101DB000B7010E94672F29813A814B815C810E9483
:101DC000672F4B015C01D60158966D917D918D91E5
:101DD0009C915B972D813E814F8158850E94662F93
:101DE0002D853E854F8558890E94662F29893A891D
:101DF0004B895C890E94662F298D3A8D4B8D5C8DB5
:101E00000E9446327B018C0169897A898B899C8981
:101E1000A30192010E9446329B01AC01C801B701A7
:101E20000E94672F7B018C016D857E858F85988947
:101E300029853A854B855C850E9446329B01AC0121
:101E4000C801B7010E94672F2D813E814F815885BF
:101E50000E94672FF1016083718382839383C401A1
:101E6000D50184839583A683B7836C960FB6F894C7
:101E7000DEBF0FBECDBFCF91DF911F910F91FF90BD
:101E8000EF90DF90CF90BF90AF909F908F907F901A
:101E90006F905F904F903F902F9008958091200415
:101EA00090912104A0912204B09123048093FA041C
:101EB0009093FB04A093FC04B093FD048091240450
:101EC00090912504A0912604B09127048093FE04EC
:101ED0009093FF04A0930005B0930105809128041E
:101EE00090912904A0912A04B0912B0480930205BB
:101EF00090930305A0930405B093050508952F92D0
:101F00003F924F925F926F927F928F929F92AF9289
:101F1000BF92CF92DF92EF92FF920F931F93DF93C6
:101F2000CF9300D000D0CDB7DEB769837A838B839F
:101F30009C83E0901E05F0901F05009120051091F4
:101F400021056090220570902305809024059090D3
:101F500025052090260530902705409028055090B3
:101F60002905209142053091430540914405509147
:101F700045058091460590914705A0914805B0918F
:101F8000490582179307A407B50784F4A0904A0572
:101F9000B0904B05C0904C05D0904D05A216B306ED
:101FA000C406D50694F459016A010FC0A0904A05F1
:101FB000B0904B05C0904C05D0904D05A816B906C1
:101FC000CA06DB0614F45C016D0169817A818B819C
:101FD0009C8120E030E040E050E00E9440308823C7
:101FE00009F452C0A114B104C104D10409F44CC0D5
:101FF000C801B701A80197010E9446327B018C01FC
:10200000C401B301A40193010E9446329B01AC01BB
:10201000C801B7010E94672F7B018C01C201B10189
:10202000A20191010E9446329B01AC01C801B70197
:102030000E94672F0E94B33220EC31EE44E65CE44C
:102040000E94463229813A814B815C810E9447304F
:102050007B018C01C601B5010E94E2309B01AC01FD
:10206000C801B7010E94473020E030E042E852E466
:102070000E94662F7B018C0120E030E040E050E0C0
:102080000E944030882354F40F2EF0E0EF2EF0E051
:10209000FF2EF0E00F2FF0E01F2FF02DC801B70149
:1020A0000E94AF309B01AC01CA010F900F900F90BE
:1020B0000F90CF91DF911F910F91FF90EF90DF90E4
:1020C000CF90BF90AF909F908F907F906F905F90D8
:1020D0004F903F902F90089580914A0590914B0525
:1020E000A0914C05B0914D05181619061A061B064D
:1020F0003CF460E070E080EA93E40E947F0F089572
:102100006091380470913904882777FD8095982F65
:102110000E94E2300E947F0F0895AF92BF92CF924B
:10212000DF92EF92FF920F931F93A0901205B09051
:102130001305C0901405D0901505C601B501209176
:1021400006053091070540910805509109050E9448
:10215000662F7B018C0120E030E040E050E00E94DF
:102160003B32181624F017FB109517F91095E092E2
:102170001E05F0921F050093200510932105609124
:1021800016057091170580911805909119052091F9
:102190000A0530910B0540910C0550910D050E94E8
:1021A000662F7B018C0120E030E040E050E00E948F
:1021B0003B32181624F017FB109517F91095E09292
:1021C0002205F092230500932405109325056091C4
:1021D0001A0570911B0580911C0590911D05209199
:1021E0000E0530910F0540911005509111050E9488
:1021F000662F7B018C0120E030E040E050E00E943F
:102200003B32181624F017FB109517F91095E09241
:102210002605F09227050093280510932905609163
:10222000FA047091FB048091FC049091FD04A601D6
:1022300095010E945B026093360570933705809389
:102240003805909339056091FE047091FF048091E8
:1022500000059091010520911605309117054091D8
:102260001805509119050E945B0260933A0570931E
:102270003B0580933C0590933D056091020570916C
:102280000305809104059091050520911A05309170
:102290001B0540911C0550911D050E945B027B01AE
:1022A0008C0160933E0570933F05809340059093A9
:1022B0004105209136053091370540913805509100
:1022C000390580912A0590912B05A0912C05B0919C
:1022D0002D05281B390B4A0B5B0B209342053093CD
:1022E0004305409344055093450557FF0FC0882789
:1022F0009927DC01821B930BA40BB50B809342053D
:1023000090934305A0934405B093450520913A0569
:1023100030913B0540913C0550913D0580912E0543
:1023200090912F05A0913005B0913105281B390BF4
:102330004A0B5B0B209346053093470540934805B5
:102340005093490557FF0FC088279927DC01821B4E
:10235000930BA40BB50B8093460590934705A09370
:102360004805B09349058091320590913305A091BD
:102370003405B0913505A8019701281B390B4A0B8C
:102380005B0B20934A0530934B0540934C055093CB
:102390004D0557FF0FC088279927DC01821B930B3F
:1023A000A40BB50B80934A0590934B05A0934C0565
:1023B000B0934D051092AA03609112057091130518
:1023C000809114059091150520910605309107051F
:1023D00040910805509109050E943B3288231CF06A
:1023E00081E08093AA031092AB036091160570916F
:1023F0001705809118059091190520910A053091D3
:102400000B0540910C0550910D050E943B3288232D
:102410001CF081E08093AB031092AC0360911A052D
:1024200070911B0580911C0590911D0520910E0552
:1024300030910F0540911005509111050E943B32DB
:1024400088231CF081E08093AC031F910F91FF90D3
:10245000EF90DF90CF90BF90AF9008950F931F93B0
:102460008B019C018AE295E066E375E042E455E069
:102470000E9484088091120590911305A091140583
:10248000B09115058093060590930705A093080564
:10249000B09309058091160590911705A091180534
:1024A000B091190580930A0590930B05A0930C0534
:1024B000B0930D0580911A0590911B05A0911C0504
:1024C000B0911D0580930E0590930F05A093100504
:1024D000B09311050E948D101F910F91089580E017
:1024E00090E0A0E0B0E08093060590930705A093EC
:1024F0000805B093090580930A0590930B05A093F6
:102500000C05B0930D0580930E0590930F05A093D5
:102510001005B09311058093120590931305A093B5
:102520001405B09315058093160590931705A09395
:102530001805B093190580931A0590931B05A09375
:102540001C05B0931D058091200490912104A09159
:102550002204B09123048093FA049093FB04A09387
:10256000FC04B093FD048091240490912504A09173
:102570002604B09127048093FE049093FF04A09357
:102580000005B09301058091280490912904A09141
:102590002A04B0912B048093020590930305A09325
:1025A0000405B09305050E948D100895AF92BF9267
:1025B000CF92DF92EF92FF920F931F935B016C011A
:1025C00060930605709307058093080590930905AD
:1025D00020930A0530930B0540930C0550930D058D
:1025E000E0920E05F0920F0500931005109311056F
:1025F0006091FA047091FB048091FC049091FD04B9
:10260000A60195010E945B0260932A0570932B0539
:1026100080932C0590932D056091FE047091FF042A
:10262000809100059091010520910A0530910B05DC
:1026300040910C0550910D050E945B0260932E05A0
:1026400070932F05809330059093310560910205BA
:1026500070910305809104059091050520910E0568
:1026600030910F0540911005509111050E945B02B9
:10267000609332057093330580933405909335054C
:102680000E948D101F910F91FF90EF90DF90CF90DF
:10269000BF90AF900895DF93CF93CDB7DEB72A9761
:1026A0000FB6F894DEBF0FBECDBF282F19821A8255
:1026B0001B821C82FE01359686E0DF011D928A9501
:1026C000E9F790E024C0E60FF71F80819F5F821733
:1026D000F1F4DE0111969E01255F3F4F09C0E60F20
:1026E000F71F8081882361F0803251F08D939F5FC6
:1026F000E92FF0E0E417F5071CF4A217B30779F708
:10270000CE01019660E070E00E94D30009C0E92F7D
:10271000F0E0E417F507BCF260E070E080E090E0E4
:102720002A960FB6F894DEBF0FBECDBFCF91DF91D2
:1027300008952F923F924F925F926F927F928F9265
:102740009F92AF92BF92CF92DF92EF92FF920F9340
:102750001F93DF93CF93CDB7DEB7CB55D0400FB6E5
:10276000F894DEBF0FBECDBF4C013B01DC018C9164
:102770008F3211F40C94051D873439F0883529F017
:10278000893519F08A3509F059C687E4B401A301E7
:102790000E944B130E94AF302C966FAF2C97643081
:1027A000C8F065961FAE659766961FAE66976796EA
:1027B0001FAE679768961FAE68970F2EF0E02F2E1A
:1027C000F0E03F2EF0E04F2EF0E05F2EF02D6201A2
:1027D000510183C080914E05882309F441C090E0E7
:1027E00006C0E80DF91D8081883541F09F5FE92F13
:1027F000F0E0E615F705ACF30C94251D88E5B4016F
:10280000A3010E944B135B016C0190E006C0E80D30
:10281000F91D8081893541F09F5FE92FF0E0E615D1
:10282000F705ACF30C942F1D89E5B401A3010E94B8
:102830004B131B012C0190E006C0E80DF91D8081AF
:102840008A3541F09F5FE92FF0E0E615F705ACF31C
:102850000C94391D8AE5B401A3010E944B1331C0C9
:1028600088E5B401A3010E944B1320910605309125
:10287000070540910805509109050E94672F5B01EB
:102880006C0189E5B401A3010E944B1320910A0554
:1028900030910B0540910C0550910D050E94672F5A
:1028A0001B012C018AE5B401A3010E944B13209166
:1028B0000E0530910F0540911005509111050E94B1
:1028C000672F65966FAF659766967FAF6697679639
:1028D0008FAF679768969FAF68978CE4B401A301A8
:1028E0000E944B130E94AF307093500560934F05C8
:1028F000161617061CF4CB010E94E50B2C96EFADC3
:102900002C97E43109F427C4E53168F4E43020F46D
:10291000E23008F0A3C023C02C96FFAD2C97F43012
:1029200009F06AC504C42C962FAD2C972E3109F4FA
:10293000A9C42F3138F4253109F442C42C3109F0EF
:102940005BC57DC42C963FAD2C973B3509F446C53D
:102950003C3509F446C53A3509F04EC53BC5A09251
:102960001205B0921305C0921405D092150520925D
:102970001605309217054092180550921905659674
:102980002FAD659766963FAD669767964FAD679793
:1029900068965FAD6897C901DA0180931A05909334
:1029A0001B05A0931C05B0931D050E948D1090E09F
:1029B00006C0E80DF91D8081873439F09F5FE92F4B
:1029C000F0E0E615F705ACF31FC02C968FAD2C9701
:1029D000813089F586E4B401A3010E944B130E9463
:1029E000AF309B01161617067CF4B901882777FDD6
:1029F0008095982F0E94E2306093510570935205A4
:102A00008093530590935405E0905105F090520542
:102A10000091530510915405C801B70120E030E042
:102A200040E050E00E943B3218162CF4C801B70178
:102A30000E947F0F02C00E946C1060935505709336
:102A400056058093570590935805609155057091F0
:102A50005605809157059091580511C482E4B40140
:102A6000A3010E944B130E94AF306330710509F03F
:102A70009EC18091060590910705A0910805B0912F
:102A8000090589879A87AB87BC8780910A05909151
:102A90000B05A0910C05B0910D058D879E87AF8722
:102AA000B88B81E6B401A3010E944B13698B7A8B2A
:102AB0008B8B9C8B82E6B401A3010E944B136D8B20
:102AC0007E8B8F8B988F83E6B401A3010E944B13FA
:102AD000698F7A8F8B8F9C8F84E6B401A3010E944B
:102AE0004B136D8F7E8F8F8F98A385E6B401A30162
:102AF0000E944B1369A37AA38BA39CA386E6B4011F
:102B0000A3010E944B136DA37EA38FA398A7E98412
:102B1000FA840B851C858D859E85AF85B88989A72C
:102B20009AA7ABA7BCA72B961FAE1EAE2B970F2E56
:102B3000F0E02F2EF0E03F2EF0E04F2EF0E05F2E81
:102B4000F02D2B96AEADBFAD2B97BD01882777FD3D
:102B50008095982F0E94E23029E33EE843EE5DE342
:102B60000E944632AB01BC01CE0109969E012F5F47
:102B70003F4F0E94E00D89819A81AB81BC812996EB
:102B80008CAF9DAFAEAFBFAF2997C801B7012996F3
:102B90002CAD3DAD4EAD5FAD29970E94662F5B0118
:102BA0006C018D819E81AF81B88525968CAF9DAFDC
:102BB000AEAFBFAF259769A57AA58BA59CA5259635
:102BC0002CAD3DAD4EAD5FAD25970E94662F7B01CC
:102BD0008C01C601B501A60195010E9446325B0138
:102BE0006C01C801B701A80197010E9446329B0100
:102BF000AC01C601B5010E94672F7B018C0120E06A
:102C000030E040E050E00E943B32181664F4C80106
:102C1000B7010E94B3329B01AC01C201B1010E9415
:102C2000672F1B012C012B96AEADBFAD2B971196D4
:102C30002B96BFAFAEAF2B971A9789F02996ECACC5
:102C4000FDAC0EAD1FAD299725968CAD9DADAEADFB
:102C5000BFAD259789A79AA7ABA7BCA772CFC20122
:102C6000B1012091A4033091A5034091A603509196
:102C7000A7030E9447300E942D300E94AF306B01A5
:102C800092E0C916D1041CF482E0C82ED12C08941D
:102C9000C108D108B601882777FD8095982F089440
:102CA000C11CD11C0E94E2309B01AC0160E070E0CD
:102CB00080E89FE30E9447301B012C01AA24BB241B
:102CC000B501882777FD8095982F0E94E230A201F8
:102CD00091010E944632AB01BC01CE0109969E01D2
:102CE0002F5F3F4F0E94E00D2D813E814F8158851F
:102CF00089819A81AB81BC818093120590931305E1
:102D0000A0931405B093150520931605309317056D
:102D1000409318055093190565962FAD65976696F3
:102D20003FAD669767964FAD679768965FAD6897BA
:102D3000C901DA0180931A0590931B05A0931C0525
:102D4000B0931D050E948D10E0905105F090520542
:102D50000091530510915405C801B70120E030E0FF
:102D600040E050E00E943B3218162CF4C801B70135
:102D70000E947F0F02C00E946C10609355057093F3
:102D800056058093570590935805609155057091AD
:102D9000560580915705909158050E942E1208946F
:102DA000A11CB11CAC14BD040CF48ACF3CC389E453
:102DB000B401A3010E944B13209106053091070531
:102DC00040910805509109050E94672F64966CAFE9
:102DD0007DAF8EAF9FAF64978AE4B401A3010E94D8
:102DE0004B13E0900A05F0900B0500910C05109133
:102DF0000D05A80197010E94672F60966CAF7DAF0B
:102E00008EAF9FAF60976091060570910705809126
:102E100008059091090564962CAD3DAD4EAD5FADB2
:102E200064970E94662F6DAB7EAB8FAB98AFC801E5
:102E3000B70160962CAD3DAD4EAD5FAD60970E9481
:102E4000662F69AB7AAB8BAB9CABC601B5016496C0
:102E50002CAD3DAD4EAD5FAD64970E94662F5B011A
:102E60006C01C201B10160962CAD3DAD4EAD5FADC0
:102E700060970E94662F7B018C012C96AFAD2C973A
:102E8000A230A1F4C8019501A6010E94DA2F219673
:102E90006CAF7DAF8EAF9FAF219769A97AA98BA93F
:102EA0009CA92DA93EA94FA958AD14C069A97AA91A
:102EB0008BA99CA92DA93EA94FA958AD0E94DA2F34
:102EC00021966CAF7DAF8EAF9FAF2197B701C80140
:102ED0009501A6010E94DA2F7B018C0121962CAD71
:102EE0003DAD4EAD5FAD21970E944030181654F0B5
:102EF000C801B7012BED3FE049EC50E40E94672F79
:102F00007B018C01C801B70121962CAD3DAD4EADC2
:102F10005FAD21970E94662F69AF7AAF8BAF9CAFF0
:102F20006DA97EA98FA998AD9B01AC010E94463284
:102F30007B018C0169A97AA98BA99CA99B01AC0191
:102F40000E9446329B01AC01C801B7010E94672F65
:102F50000E94B3321B012C0129AD3AAD4BAD5CADE3
:102F60000E9446322091A4033091A5034091A6030C
:102F70005091A7030E9447300E942D300E94AF302D
:102F800078AB6FA7E1E0F0E0FEA7EDA7CB01AA27A1
:102F900097FDA095BA2F6C968CAF9DAFAEAFBFAF2B
:102FA0006C97BCC02C969FAD2C97933019F42DA52F
:102FB0003EA506C02FA538A9ADA5BEA52A1B3B0B73
:102FC000B901882777FD8095982F0E94E2307B0118
:102FD0008C016C966CAD7DAD8EAD9FAD6C970E94F3
:102FE000E2309B01AC01C801B7010E9447309B0150
:102FF000AC0169AD7AAD8BAD9CAD0E9446329B01B0
:10300000AC0121966CAD7DAD8EAD9FAD21970E9438
:10301000672F7B018C01C8010E9444305B016C0169
:10302000B701C8010E94A9327B018C01C201B10124
:10303000A60195010E9446329B01AC0164966CADDD
:103040007DAD8EAD9FAD64970E94672F6093120592
:10305000709313058093140590931505C201B10177
:10306000A80197010E9446329B01AC0160966CADAD
:103070007DAD8EAD9FAD60970E94672F6093160562
:1030800070931705809318059093190565962FADD9
:10309000659766963FAD669767964FAD679768965A
:1030A0005FAD6897C901DA0180931A0590931B05FB
:1030B000A0931C05B0931D050E948D10E090510552
:1030C000F09052050091530510915405C801B701C5
:1030D00020E030E040E050E00E943B3218162CF433
:1030E000C801B7010E947F0F02C00E946C1060935C
:1030F0005505709356058093570590935805609138
:1031000055057091560580915705909158050E947C
:103110002E12EDA5FEA53196FEA7EDA72DA53EA585
:103120008FA598A9821793070CF03CCF7CC180E54E
:10313000B401A3010E944B1320E030E04AE754E4BD
:103140000E9446320E94AF30882777FD8095982FE5
:103150000E94F10268C180912C0490912D04A091ED
:103160002E04B0912F048093FA049093FB04A09353
:10317000FC04B093FD048091300490913104A0913F
:103180003204B09133048093FE049093FF04A09323
:103190000005B09301058091340490913504A0910D
:1031A0003604B09137048093020590930305A093F1
:1031B0000405B093050589E092E0A1E8BBE334C0C3
:1031C0008091200490912104A0912204B0912304C5
:1031D0008093FA049093FB04A093FC04B093FD0445
:1031E0008091240490912504A0912604B091270495
:1031F0008093FE049093FF04A0930005B093010513
:103200008091280490912904A0912A04B0912B0464
:103210008093020590930305A0930405B0930505E0
:103220008DEC9CECACECBDE38093A4039093A503E0
:10323000A093A603B093A7030E948D10F4C080E072
:1032400090E0A0E0B0E08093120590931305A09366
:103250001405B09315058093160590931705A09358
:103260001805B093190580931A0590931B05A09338
:103270001C05B0931D050E948D100E946C100E94C9
:103280002E12D1C088E5B401A3010E944B131B018B
:103290002C0189E5B401A3010E944B137B018C0131
:1032A0008AE5B401A3010E944B135B016C0180917C
:1032B0004E05882309F443C090E006C0E80DF91DCF
:1032C0008081883539F09F5FE92FF0E0E615F7053A
:1032D000ACF3E5C390E006C0E80DF91D80818935A7
:1032E00039F09F5FE92FF0E0E615F705ACF3E0C396
:1032F00090E006C0E80DF91D80818A3539F09F5FA6
:10330000E92FF0E0E615F705ACF3DBC320921205D8
:10331000309213054092140550921505E09216055F
:10332000F09217050093180510931905A0921A053D
:10333000B0921B05C0921C05D0921D0544C0C80167
:10334000B70120910A0530910B0540910C05509171
:103350000D050E94672F7B018C01C601B5012091EC
:103360000E0530910F0540911005509111050E94F6
:10337000672F5B016C0160910605709107058091D4
:10338000080590910905A20191010E94672F6093A1
:103390001205709313058093140590931505C701CA
:1033A000D8018093160590931705A0931805B09344
:1033B0001905C501D60180931A0590931B05A093AA
:1033C0001C05B0931D050E948D100E946C100E9478
:1033D0002E1235CF81E080934E0525C010924E0508
:1033E00022C060E070E080E090E09B01AC017B01D6
:1033F0008C010E94D61217C087E496E062E473E065
:103400000E94132B87E496E02C966FAD2C974AE030
:1034100050E00E945D2A87E496E06AE070E04AE0AE
:1034200050E00E94F42A80914F05909150051816A3
:10343000190624F480E090E00E94D30BD4018C9113
:103440008D3409F055C0B401A3010E944B130E94B2
:10345000B4307B018C01633019F0653009F510C080
:103460008CE4B401A3010E944B130E94AF30DC0135
:10347000CB019093A9038093A8030E94E50B1DC084
:103480008CE4B401A3010E944B130E94AF30DC0115
:10349000CB019093A9038093A8030E94D30B0DC086
:1034A00087E496E06BE473E00E94132B87E496E0D8
:1034B0006E2D4AE050E00E946F2A80E5B401A3011E
:1034C0000E944B137B018C0120E030E040E050E093
:1034D0000E943B32181664F4C801B70120E030E0C6
:1034E0004AE754E40E9446320E94B4300E94F1023E
:1034F000F4018081843569F4B401A3010E944B1367
:103500000E94B430DC01CB0190E0B401A3010E9421
:103510006A06D4018C91843209F077C2B401A30108
:103520000E944B130E94B430653009F46FC16630BD
:1035300070F4623039F1633020F4613009F065C213
:1035400023C06330E9F0643009F05FC217C068300F
:1035500079F0693030F4663079F0673009F055C29F
:1035600009C0693009F4F3C1653109F04EC226C2C1
:1035700090E0BFC190E0A3C190E05AC190E0FCC0D0
:1035800090E0AAC090E058C090E006C0E80DF91D98
:103590008081883539F09F5FE92FF0E0E615F70567
:1035A000ACF30DC088E5B401A3010E944B130E9447
:1035B000AF309B01AC0188E5B9010E94B30790E0F0
:1035C00006C0E80DF91D8081893539F09F5FE92F2C
:1035D000F0E0E615F705ACF30DC089E5B401A301F1
:1035E0000E944B130E94AF309B01AC0189E5B901E9
:1035F0000E94B30790E006C0E80DF91D80818A356E
:1036000039F09F5FE92FF0E0E615F705ACF3FDC157
:103610008AE5B401A3010E944B130E94AF309B01C5
:10362000AC018AE5B9010E94B307EFC1E80DF91DAD
:103630008081883539F09F5FE92FF0E0E615F705C6
:10364000ACF30DC088E5B401A3010E944B130E94A6
:10365000AF309B01AC0188E5B9010E949C0790E066
:1036600006C0E80DF91D8081893539F09F5FE92F8B
:10367000F0E0E615F705ACF30DC089E5B401A30150
:103680000E944B130E94AF309B01AC0189E5B90148
:103690000E949C0790E006C0E80DF91D80818A35E4
:1036A00039F09F5FE92FF0E0E615F705ACF3ADC107
:1036B0008AE5B401A3010E944B130E94AF309B0125
:1036C000AC018AE5B9010E949C079FC1E80DF91D74
:1036D0008081883539F09F5FE92FF0E0E615F70526
:1036E000ACF30DC088E5B401A3010E944B130E9406
:1036F000AF309B01AC0188E5B9010E94850790E0DD
:1037000006C0E80DF91D8081893539F09F5FE92FEA
:10371000F0E0E615F705ACF30DC089E5B401A301AF
:103720000E944B130E94AF309B01AC0189E5B901A7
:103730000E94850790E006C0E80DF91D80818A355A
:1037400039F09F5FE92FF0E0E615F705ACF35DC1B6
:103750008AE5B401A3010E944B130E94AF309B0184
:10376000AC018AE5B9010E9485074FC1E80DF91D3A
:103770008081883539F09F5FE92FF0E0E615F70585
:10378000ACF30DC088E5B401A3010E944B130E9465
:10379000AF309B01AC0188E5B9010E946E0790E053
:1037A00006C0E80DF91D8081893539F09F5FE92F4A
:1037B000F0E0E615F705ACF30DC089E5B401A3010F
:1037C0000E944B130E94AF309B01AC0189E5B90107
:1037D0000E946E0790E006C0E80DF91D80818A35D1
:1037E00039F09F5FE92FF0E0E615F705ACF30DC166
:1037F0008AE5B401A3010E944B130E94AF309B01E4
:10380000AC018AE5B9010E946E07FFC08DE6B401E4
:10381000A3010E944B130E94AF30DC01CB010E9438
:10382000240CF3C0E80DF91D8081883539F09F5FC5
:10383000E92FF0E0E615F705ACF30AC088E5B4011E
:10384000A3010E944B13AB01BC0188E50E949302C7
:1038500090E006C0E80DF91D8081893539F09F5F41
:10386000E92FF0E0E615F705ACF30AC089E5B401ED
:10387000A3010E944B13AB01BC0189E50E94930296
:1038800090E006C0E80DF91D80818A3539F09F5F10
:10389000E92FF0E0E615F705ACF322C08AE5B401A4
:1038A000A3010E944B13AB01BC018AE50E94930265
:1038B00017C0E80DF91D8081863439F09F5FE92F2C
:1038C000F0E0E615F705ACF3A0C086E4B401A3016F
:1038D0000E944B130E94AF30DC01CB010E94B40266
:1038E0000E946F1292C0E80DF91D8081813439F079
:1038F0009F5FE92FF0E0E615F705ACF30DC081E41A
:10390000B401A3010E944B130E94AF309B01AC0194
:1039100081E4B9010E940F0790E006C0E80DF91D8F
:103920008081823439F09F5FE92FF0E0E615F705DA
:10393000ACF30DC082E4B401A3010E944B130E94BA
:10394000AF309B01AC0182E4B9010E940F0790E007
:1039500006C0E80DF91D8081813439F09F5FE92FA1
:10396000F0E0E615F705ACF30DC081E4B401A30166
:103970000E944B130E94AF309B01AC0181E4B9015E
:103980000E94110C90E006C0E80DF91D8081823480
:1039900039F09F5FE92FF0E0E615F705ACF335C08D
:1039A00082E4B401A3010E944B130E94AF309B013B
:1039B000AC0182E4B9010E94110C27C08CE4B4016F
:1039C000A3010E944B130E94AF306115710519F0DD
:1039D000CB010E94370483E5B401A3010E944B137D
:1039E0000E94AF306115710519F0CB010E946A0485
:1039F00080E5B401A3010E944B130E94AF30611512
:103A0000710519F0CB010E94240387E496E06FE36F
:103A100073E00E94FD2BC55ADF4F0FB6F894DEBF4E
:103A20000FBECDBFCF91DF911F910F91FF90EF900F
:103A3000DF90CF90BF90AF909F908F907F906F90CE
:103A40005F904F903F902F900895A0900605B09002
:103A50000705C0900805D09009050C940514209026
:103A60000A0530900B0540900C0550900D050C9404
:103A70001B14B0910E056596BFAF6597E0910F05D9
:103A80006696EFAF6697F09110056796FFAF679760
:103A90002091110568962FAF68970C946D142090B3
:103AA000060530900705409008055090090512CC96
:103AB000E0900A05F0900B0500910C0510910D05A2
:103AC00017CCA0900E05B0900F05C0901005D090B7
:103AD00011051CCC109270051092710510927205A0
:103AE0001092730510927C0510927D0510927E0550
:103AF00010927F05109288051092890510928A0510
:103B000010928B0508958130910551F46F5F7F4FBE
:103B100081F481E695E064E573E00E94172D089535
:103B2000892B39F46F5F7F4F21F481E695E00E9485
:103B30004A2D089580E090E06FEF7FEF0E94831D93
:103B4000089581E090E06FEF7FEF0E94831D08955C
:103B5000EF92FF920F931F93CF93DF93EC0110929C
:103B600068051092690510926A0510926B05109213
:103B70006C0510926D0510926E0510926F051092F3
:103B80007405109275051092760510927705E090F5
:103B90002404F09025040091260410912704BE010E
:103BA000882777FD8095982F0E94E2302DEC3CEC21
:103BB0004CEC5DE30E9446329B01AC01C801B701A9
:103BC0000E945B0222273327A901261B370B480BD3
:103BD000590B209378053093790540937A055093DB
:103BE0007B0510928005109281051092820510923B
:103BF0008305209384053093850540938605509373
:103C0000870557FF0FC088279927DC01821B930B7C
:103C1000A40BB50B8093840590938505A09386052E
:103C2000B093870580918C0590918D05A0918E05AC
:103C3000B0918F05181619061A061B0684F080919C
:103C4000380490913904AA2797FDA095BA2F809344
:103C50008C0590938D05A0938E05B0938F059E01E2
:103C6000D7FF03C0309521953F4FB901882777FDD5
:103C70008095982F0E94E2302DEC3CEC4CEC5DE3FB
:103C80000E94463220EC31EE44E65CE40E9446326B
:103C90007B018C0160918C0570918D0580918E0562
:103CA00090918F050E94E2309B01AC01C801B701E1
:103CB0000E94473020E030E040E050E00E94473072
:103CC0000E94AF308B019C0188E695E064E775E0C7
:103CD00040E855E00E948408DF91CF911F910F9139
:103CE000FF90EF900895AF92BF92CF92DF92EF9244
:103CF000FF920F931F93CF93DF93EC01109268050F
:103D00001092690510926A0510926B0510926C056D
:103D100010926D0510926E0510926F05E0902004D0
:103D2000F09021040091220410912304BE01882701
:103D300077FD8095982F0E94E2302DEC3CEC4CEC06
:103D40005DE30E9446329B01AC01C801B7010E94AD
:103D50005B0290958095709561957F4F8F4F9F4F37
:103D6000609374057093750580937605909377053D
:103D7000109278051092790510927A0510927B05C1
:103D80005B016C0197FF08C0D094C094B094A094DC
:103D9000A11CB11CC11CD11CA0928005B092810550
:103DA000C0928205D09283051092840510928505F9
:103DB000109286051092870580918C0590918D0553
:103DC000A0918E05B0918F05181619061A061B06CC
:103DD00084F08091380490913904AA2797FDA0952A
:103DE000BA2F80938C0590938D05A0938E05B09388
:103DF0008F059E01D7FF03C0309521953F4FB90134
:103E0000882777FD8095982F0E94E2302DEC3CECBE
:103E10004CEC5DE30E94463220EC31EE44E65CE47B
:103E20000E9446327B018C0160918C0570918D055A
:103E300080918E0590918F050E94E2309B01AC012C
:103E4000C801B7010E9447307B018C01C601B50152
:103E50000E94E2309B01AC01C801B7010E944730CB
:103E60000E94AF308B019C0188E695E064E775E025
:103E700040E855E00E948408DF91CF911F910F9197
:103E8000FF90EF90DF90CF90BF90AF9008952F926A
:103E90003F924F925F926F927F928F929F92AF92DA
:103EA000BF92CF92DF92EF92FF920F931F93CF9327
:103EB000DF934C015B01CC24DD2433E0632E712CB5
:103EC00021E0422E512C92E0292E312C4DC3F401D9
:103ED000EC0DFD1D108181E695E0612F0E94D12C33
:103EE000133509F441C0143554F41C3409F44BC0A3
:103EF0001D3409F45CC01B3309F06BC008C01835D1
:103F0000A9F0193511F1153509F063C03FC01092C1
:103F10005A051092590581E695E064E573E00E9428
:103F2000312D87E496E065E573E051C050925A0563
:103F30004092590581E695E064E573E00E94312DD9
:103F400087E496E068E573E042C030925A0520921B
:103F5000590581E695E064E573E00E94312D87E420
:103F600096E06EE573E033C070925A056092590591
:103F700081E695E064E573E00E94312D87E496E0E8
:103F800064E673E024C084E090E002C085E090E045
:103F900090935A058093590581E695E064E573E0B6
:103FA0000E94312D87E496E06AE673E010C087E056
:103FB00090E090935A058093590581E695E064E579
:103FC00073E00E94312D87E496E060E773E00E9481
:103FD000FD2B8091590590915A058330910509F484
:103FE00098C1843091051CF401976CF4AEC2853001
:103FF000910509F4DEC0853091050CF401C20797E4
:1040000009F0A3C259C28091650590916605059794
:1040100009F09BC281E695E060E070E00E94592CB7
:10402000FC01E0818E2F80538A3028F4EE2EFF248D
:1040300080ED9FEF0CC08E2F8154863020F0EE244F
:10404000EA94FE2C06C0EE2EFF2489EC9FEFE80ECA
:10405000F91E81E695E061E070E00E94592CFC01B8
:10406000E0818E2F80538A3028F40E2F10E0005309
:1040700010400BC08E2F8154863018F00FEF1FEFC9
:1040800004C00E2F10E00753104081E695E062E077
:1040900070E00E94592CFC01E0818E2F80538A3001
:1040A00020F4CE2FD0E0E0970AC08E2F81548630C6
:1040B00018F0CFEFDFEF03C0CE2FD0E0E79781E617
:1040C00095E063E070E00E94592CFC01E0818E2FA6
:1040D00080538A3018F4F0E0F09709C08E2F815495
:1040E000863018F0EFEFFFEF02C0F0E0F797902F67
:1040F0008827FE2CEE24F29400EFF0228E299F29CF
:1041000014E0CC0FDD1F1A95E1F78C2B9D2B8E2B25
:104110009F2B90935C0580935B0581E695E064E0BE
:1041200070E00E94592CFC01E0818E2F80538A3070
:1041300020F48E2F90E0C09707C08E2F81548630D8
:1041400040F48E2F90E0C797892B19F42FEF3FEFA3
:1041500002C021E030E08091590590915A054091CC
:104160005B0550915C05019751F4249FC001259F88
:10417000900D349F900D11240E94731E09C0249F3E
:10418000C001259F900D349F900D11240E94A81D01
:1041900081E695E064E573E00E94312D87E496E0C6
:1041A00066E773E00E94132B60915B0570915C05DC
:1041B00020C18091650590916605049709F0C5C1FD
:1041C00081E695E060E070E00E94592CFC01E081FE
:1041D0008E2F80538A3028F4EE2EFF2480ED9FEF3F
:1041E0000CC08E2F8154863020F0EE24EA94FE2CF1
:1041F00006C0EE2EFF2489EC9FEFE80EF91E81E643
:1042000095E061E070E00E94592CFC01E0818E2F66
:1042100080538A3028F40E2F10E0005310400BC05A
:104220008E2F8154863018F00FEF1FEF04C00E2F31
:1042300010E00753104081E695E062E070E00E94D4
:10424000592CFC01E0818E2F80538A3020F4CE2F30
:10425000D0E0E0970AC08E2F8154863018F0CFEF5F
:10426000DFEF03C0CE2FD0E0E79781E695E063E073
:1042700070E00E94592CFC01E0818E2F80538A301F
:1042800018F4F0E0F09709C08E2F8154863018F0B2
:10429000EFEFFFEF02C0F0E0F797902F8827FE2C9A
:1042A000EE24F294A0EFFA228E299F2974E0CC0F1D
:1042B000DD1F7A95E1F78C2B9D2B8E2B9F2B9093F6
:1042C0005E0580935D0581E695E064E573E00E94FC
:1042D000312D87E496E06CE773E00E94132B609128
:1042E0005D0570915E0587E496E04AE050E00E942B
:1042F000F42A20915D0530915E05121613060CF02C
:1043000024C1B901882777FD8095982F0E948025C8
:104310001CC18091650590916605029709F015C151
:1043200081E695E060E070E00E94592CFC01E0819C
:104330008E2F80538A3020F4CE2FD0E0E0970AC031
:104340008E2F8154863018F0CFEFDFEF03C0CE2FD1
:10435000D0E0E79781E695E061E070E00E94592C9B
:10436000FC01E0818E2F80538A3020F48E2F90E064
:10437000C0970AC08E2F8154863018F08FEF9FEFC0
:1043800003C08E2F90E0C797FE0164E0EE0FFF1F81
:104390006A95E1F7E82BF92BF093AE03E093AD03B8
:1043A0001E161F06B4F4CF0153E0880F991F5A95CB
:1043B000E1F7EE0FFF1F8E0F9F1FAA2797FDA09515
:1043C000BA2F80938C0590938D05A0938E05B093A2
:1043D0008F0581E695E064E573E00E94312D87E466
:1043E00096E068E873E00E94132B6091AD03709132
:1043F000AE0387E496E04AE050E00E94F42AA5C0AC
:104400008091650590916605029709F09EC081E64E
:1044100095E060E070E00E94592CFC01E0818E2F55
:1044200080538A3020F4CE2FD0E0E0970AC08E2F40
:104430008154863018F0CFEFDFEF03C0CE2FD0E0ED
:10444000E79781E695E061E070E00E94592CFC015D
:10445000E0818E2F80538A3020F48E2F90E0C09719
:104460000AC08E2F8154863018F08FEF9FEF03C063
:104470008E2F90E0C79734E0CC0FDD1F3A95E1F71F
:10448000C82BD92B209729F480E090E00E94D30B11
:1044900003C0CE010E94E50B81E695E064E573E080
:1044A0000E94312D87E496E06FE873E00E94132BA1
:1044B00087E496E0BE019FCF8091650590916605E7
:1044C000029709F042C081E695E060E070E00E944A
:1044D000592CFC01E0818E2F80538A3020F4CE2F9E
:1044E000D0E0E0970AC08E2F8154863018F0CFEFCD
:1044F000DFEF03C0CE2FD0E0E79781E695E061E0E3
:1045000070E00E94592CFC01E0818E2F80538A308C
:1045100018F4F0E0F09709C08E2F8154863018F01F
:10452000EFEFFFEF02C0F0E0F797CE0124E0880F35
:10453000991F2A95E1F78E2B9F2B9093600580930E
:104540005F05019711F40E94BC058091650590916B
:104550006605819730F081E695E064E573E00E949E
:10456000312D0894C11CD11CCA14DB040CF4AFCC4F
:10457000DF91CF911F910F91FF90EF90DF90CF903F
:10458000BF90AF909F908F907F906F905F904F9073
:104590003F902F900895FC01809190058C3090F40D
:1045A00080838F5F80939005815090E0FC01EE0F37
:1045B000FF1FE80FF91FEF56FA4F88EB9BE092833D
:1045C000818308958FEF80830895DC018C9190E0C2
:1045D000FC01EE0FFF1FE80FF91FEF56FA4F808125
:1045E0008F7B80838C916CE00E943B3390E0AC0128
:1045F000440F551F480F591F440F551F440F551F97
:1046000020E030E0C901840F951FFC01EE0FFF1F71
:10461000E80FF91FEF56FA4F808186FD05C02F5F26
:104620003F4F2C30310571F70895FC0120812C306B
:10463000B8F58181992787FD909548E850E0481B9F
:10464000590B440F551F440F551F6417750784F00D
:104650008281992787FD909548E552E0481B590BC8
:10466000440F551F440F551F641775070CF4AB0119
:1046700042505040CA01AA2797FDA095BA2F880F33
:10468000991FAA1FBB1F4FB7F89430E0F901EE0F36
:10469000FF1FE20FF31FEF56FA4F928381834FBF44
:1046A0000895AF92BF92CF92DF92EF92FF920F9355
:1046B0001F93CF93DF93EC019B0182E06032780778
:1046C0000CF048C077FF03C020E030E005C0653B38
:1046D000710514F024EB30E000D000D0B901882738
:1046E00077FD8095982F2981332727FD3095E8E8BD
:1046F000AE2EB12CA21AB30AAA0CBB1CAA0CBB1C6E
:10470000CC24B7FCC094DC2CEA81FF27E7FDF095B0
:1047100028E532E02E1B3F0B220F331F220F331FE1
:10472000442737FD4095542FEDB7FEB721833283E0
:104730004383548320E030E040E050E004EBE02E7F
:10474000F12C012D112D0E94102C9B010F900F9028
:104750000F900F90CE01B9010E941523DF91CF91E8
:104760001F910F91FF90EF90DF90CF90BF90AF908F
:104770000895CF92DF92EF92FF921F93CF93DF9332
:10478000EC01162F7A01690188818C3008F064C031
:10479000862F61E00E947E26888190E0FC01EE0F6A
:1047A000FF1FE80FF91FEF56FA4F1F738081807CBF
:1047B000812B808380E292E08E199F0964E070E093
:1047C0000E944733698380E699E08C199D0964E073
:1047D00070E00E9447336A83A8818A2F6CE00E94B0
:1047E0003B33682F70E0AB01440F551F460F571F36
:1047F000440F551F440F551F20E030E0C901840FBE
:10480000951FFC01EE0FFF1FE80FF91FEF56FA4F3F
:10481000808186FD15C02F5F3F4F2C30310571F729
:1048200024C01092800082E0809381001092850065
:1048300010928400B19A80916F00826080936F0023
:104840008A2F90E0FC01EE0FFF1FE80FF91FEF56D3
:10485000FA4F8081806480838881DF91CF911F919E
:10486000FF90EF90DF90CF900895672BD1F2E8CFC3
:1048700040E252E020E639E00E94B92308951F92F9
:104880000F920FB60F9211242F933F934F935F9384
:104890006F937F938F939F93AF93BF93EF93FF9308
:1048A0008091B50587FF05C01092850010928400A5
:1048B0002BC02091B505332727FD309580919005B9
:1048C00090E02817390704F58091B505992787FDF1
:1048D0009095FC01EE0FFF1FE80FF91FEF56FA4FFE
:1048E000808186FF11C08091B505992787FD90953D
:1048F000FC01EE0FFF1FE80FF91FEF56FA4F808102
:104900008F7360E00E94BD268091B5058F5F809314
:10491000B5052091B505332727FD30958091900589
:1049200090E0281739070CF04EC08091B5058C3007
:104930000CF049C020918400309185008091B5052C
:10494000992787FD9095FC01EE0FFF1FE80FF91FD7
:10495000EF56FA4F81819281280F391F30938900D9
:10496000209388008091B505992787FD9095FC01DB
:10497000EE0FFF1FE80FF91FEF56FA4F808186FFF9
:104980002BC08091B505992787FD9095FC01EE0F0E
:10499000FF1FE80FF91FEF56FA4F80818F7361E018
:1049A0000E94BD2619C080E49CE905C08091840066
:1049B00090918500049690938900809388008FEFF2
:1049C0008093B50509C0809184009091850004967C
:1049D00080549C4940F3EACFFF91EF91BF91AF9192
:1049E0009F918F917F916F915F914F913F912F9107
:1049F0000F900FBE0F901F901895CF92DF92EF92FD
:104A0000FF920F931F936C01842FF6011782168279
:104A10001182108273836283118610861686178630
:104A2000108A118A428B538B358B248B178B068B04
:104A3000F18EE08E61E00E947E26F601848961E0BD
:104A40000E947E26F601868961E00E947E26F6019C
:104A5000808D61E00E947E2684E090E0F6019583DF
:104A600084831F910F91FF90EF90DF90CF90089576
:104A70001F920F920FB60F9211242F933F938F9393
:104A80009F93AF93BF938091BA059091BB05A0917E
:104A9000BC05B091BD053091BE050196A11DB11DAB
:104AA000232F2D5F2D3720F02D570196A11DB11D0D
:104AB0002093BE058093BA059093BB05A093BC05D7
:104AC000B093BD058091B6059091B705A091B8054A
:104AD000B091B9050196A11DB11D8093B6059093C3
:104AE000B705A093B805B093B905BF91AF919F9159
:104AF0008F913F912F910F900FBE0F901F9018959F
:104B00009B01AC017FB7F8948091B6059091B705F1
:104B1000A091B805B091B90566B5A89B05C06F3FD7
:104B200019F00196A11DB11D7FBFBA2FA92F982F93
:104B30008827860F911DA11DB11D62E0880F991F66
:104B4000AA1FBB1F6A95D1F7BC012DC0FFB7F8940F
:104B50008091B6059091B705A091B805B091B905BF
:104B6000E6B5A89B05C0EF3F19F00196A11DB11D48
:104B7000FFBFBA2FA92F982F88278E0F911DA11D37
:104B8000B11DE2E0880F991FAA1FBB1FEA95D1F75C
:104B9000861B970B885E9340C8F2215030404040FE
:104BA000504068517C4F211531054105510571F682
:104BB0000895019739F0880F991F880F991F029760
:104BC0000197F1F70895789484B5826084BD84B527
:104BD000816084BD85B5826085BD85B5816085BDF8
:104BE000EEE6F0E0808181608083E1E8F0E0108211
:104BF000808182608083808181608083E0E8F0E052
:104C0000808181608083E1EBF0E08081846080833B
:104C1000E0EBF0E0808181608083EAE7F0E0808172
:104C200084608083808182608083808181608083D2
:104C30008081806880831092C10008951F93CF9374
:104C4000DF93182FEB0161E00E947E26209709F484
:104C50004AC0CF3FD10509F449C0E12FF0E0E75049
:104C6000FF4F84918330C1F0843028F4813051F0BB
:104C70008230B1F50CC0863019F1873049F18430AB
:104C800079F514C084B5806884BDC7BD33C084B5D0
:104C9000806284BDC8BD2EC08091800080688093F2
:104CA0008000D0938900C093880024C08091800048
:104CB000806280938000D0938B00C0938A001AC0DA
:104CC0008091B00080688093B000C093B30012C0A0
:104CD0008091B00080628093B000C093B4000AC09D
:104CE000C038D1051CF4812F60E002C0812F61E043
:104CF0000E94BD26DF91CF911F910895CF93DF933E
:104D0000482F50E0CA018B519F4FFC0134914F5204
:104D10005F4FFA018491882369F190E0880F991F11
:104D2000FC01ED54FF4FA591B491FC01E354FF4FFA
:104D3000C591D491662351F42FB7F8948C91932F99
:104D4000909589238C93888189230BC0623061F40C
:104D50002FB7F8948C91932F909589238C93888109
:104D6000832B88832FBF06C09FB7F8948C91832B29
:104D70008C939FBFDF91CF910895482F50E0CA01D7
:104D800087509F4FFC012491CA018B519F4FFC011A
:104D900094914F525F4FFA013491332309F440C08C
:104DA000222351F1233071F0243028F42130A1F076
:104DB000223011F514C02630B1F02730C1F0243074
:104DC000D9F404C0809180008F7703C08091800067
:104DD0008F7D8093800010C084B58F7702C084B52A
:104DE0008F7D84BD09C08091B0008F7703C0809112
:104DF000B0008F7D8093B000E32FF0E0EE0FFF1F37
:104E0000E354FF4FA591B4912FB7F894662321F492
:104E10008C919095892302C08C91892B8C932FBF04
:104E20000895682F70E0CB0187509F4FFC012491BB
:104E3000CB018B519F4FFC0144916F527F4FFB017F
:104E40009491992319F420E030E03CC0222351F1E1
:104E5000233071F0243028F42130A1F0223011F5F4
:104E600014C02630B1F02730C1F02430D9F404C08A
:104E7000809180008F7703C0809180008F7D809328
:104E8000800010C084B58F7702C084B58F7D84BD4B
:104E900009C08091B0008F7703C08091B0008F7DF2
:104EA0008093B000892F90E0880F991F89539F4FFE
:104EB000FC01A591B4918C9120E030E0842311F0A5
:104EC00021E030E0C901089508951F920F920FB6B6
:104ED0000F9211242F933F934F938F939F93EF93B0
:104EE000FF938091C00082FD1DC04091C6002091BB
:104EF000FF05309100062F5F3F4F2F733070809178
:104F00000106909102062817390771F0E091FF051C
:104F1000F0910006E154FA4F40833093000620934D
:104F2000FF0502C08091C600FF91EF919F918F9184
:104F30004F913F912F910F900FBE0F901F9018959A
:104F4000E0915306F0915406E05CFF4F81919191FE
:104F500020813181821B930B8F739070892B11F00C
:104F60000E94642708951F920F920FB60F9211248A
:104F70002F933F938F939F93EF93FF93209143063B
:104F800030914406809145069091460628173907CE
:104F900031F48091C1008F7D8093C10014C0E091F5
:104FA0004506F0914606ED5FF94F20818091450658
:104FB0009091460601968F73907090934606809369
:104FC00045062093C600FF91EF919F918F913F91ED
:104FD0002F910F900FBE0F901F901895AF92BF9218
:104FE000DF92EF92FF920F931F93CF93DF93EC0129
:104FF0007A018B01DD24403081EE580780E068079C
:1050000080E0780711F0DD24D39491E0A92EB12C33
:10501000EC89FD89DD2069F0C50108A002C0880F78
:10502000991F0A94E2F7808360E079E08DE390E0D5
:1050300005C0108260E874E88EE190E0A801970155
:105040000E945A3321503040404050405695479579
:105050003795279580E12030380720F0DD2011F0CA
:10506000DD24D6CFE889F9893083EA89FB8920835A
:1050700019A2EE89FF89408121E030E0C9010C8C42
:1050800002C0880F991F0A94E2F7482B4083EE89EB
:10509000FF894081C9010D8C02C0880F991F0A94B5
:1050A000E2F7482B4083EE89FF894081C9010E8CCD
:1050B00002C0880F991F0A94E2F7482B4083EE89BB
:1050C000FF8980810F8C02C0220F331F0A94E2F700
:1050D000209528232083DF91CF911F910F91FF907E
:1050E000EF90DF90BF90AF900895DC011C96ED919A
:1050F000FC911D97E05CFF4F21913191808191815E
:10510000281B390B2F733070C9010895DC011C96E0
:10511000ED91FC911D97E05CFF4F20813181E054BF
:10512000F040DF01AE5BBF4F8D919C911197281726
:10513000390719F42FEF3FEF07C08D919C91E80FCD
:10514000F91F8081282F30E0C9010895DC011C96E9
:10515000ED91FC911D97E05CFF4F20813181E0547F
:10516000F040DF01AE5BBF4F8D919C9111972817E6
:10517000390719F42FEF3FEF10C08D919C911197D3
:10518000E80FF91F20818D919C91119701968F73E3
:10519000907011969C938E9330E0C9010895DC01C4
:1051A00091968C919197882339F05496ED91FC91CA
:1051B0005597808186FFF9CF91961C920895CF93E1
:1051C000DF93EC01EE85FF85E05CFF4F20813181AC
:1051D000E054F0402F5F3F4F2F733070DF01AE5B24
:1051E000BF4F8D919C91119728173907D1F3E05C3F
:1051F000FF4F80819181E054F040E80FF91F6083F8
:10520000EE85FF85E05CFF4F31832083EE89FF89C7
:10521000208181E090E00F8C02C0880F991F0A94D2
:10522000E2F7282B208381E089A3EC89FD89808126
:105230008064808381E090E0DF91CF9108951092A7
:105240004A061092490688EE93E0A0E0B0E0809311
:105250004B0690934C06A0934D06B0934E0689EBF7
:1052600093E090934806809347068FEB95E09093E8
:1052700054068093530683E096E0909356068093FD
:10528000550685EC90E0909358068093570684EC81
:1052900090E090935A068093590680EC90E09093AA
:1052A0005C0680935B0681EC90E090935E068093B1
:1052B0005D0682EC90E09093600680935F0686EC3A
:1052C00090E0909362068093610684E08093630689
:1052D00083E08093640687E08093650685E0809391
:1052E000660681E0809367060895CF93DF930E945E
:1052F000E3250E94520DC0EAD7E20E944F0D20978D
:10530000E1F30E94A027F9CFCF92DF92EF92FF92B4
:105310000F931F93CF93DF937C016B018A01C0E051
:10532000D0E00FC0D6016D916D01D701ED91FC91D8
:105330000190F081E02DC7010995C80FD91F0150D8
:1053400010400115110571F7CE01DF91CF911F912A
:105350000F91FF90EF90DF90CF900895EF92FF9222
:105360000F931F938C01DC01ED91FC910190F08172
:10537000E02D6DE009957C01D801ED91FC91019043
:10538000F081E02DC8016AE009959C012E0D3F1DBA
:10539000C9011F910F91FF90EF900895CF93DF9374
:1053A000EC016115710519F420E030E00FC0DB015C
:1053B0000D900020E9F71197A61BB70BE881F98142
:1053C0000280F381E02DAD0109959C01C901DF91B7
:1053D000CF9108954F925F927F928F929F92AF925A
:1053E000BF92CF92DF92EF92FF920F931F93DF93C2
:1053F000CF93CDB7DEB7A1970FB6F894DEBF0FBE3F
:10540000CDBF2C01742ECB01223008F42AE019A262
:1054100031E2C32ED12CCC0EDD1E822E9924AA247B
:10542000BB24672D752FA50194010E945A33790181
:105430008A01C801B701A50194010E941C33472DC0
:10544000461B0894C108D1084A3014F4405D01C0DD
:10545000495CF6014083E114F1040105110521F0D6
:105460007E2C5F2DC801DDCFC201B6010E94CE297E
:10547000A1960FB6F894DEBF0FBECDBFCF91DF91DE
:105480001F910F91FF90EF90DF90CF90BF90AF9062
:105490009F908F907F905F904F900895DC01211531
:1054A000310541F4ED91FC910190F081E02D642FE4
:1054B000099508950E94EA290895EF92FF920F93AB
:1054C0001F939A01E62EFF2400E010E0B801A70127
:1054D0000E944E2A1F910F91FF90EF900895CF9256
:1054E000DF92EF92FF920F931F936C01E62E9A01C9
:1054F000FF2400E010E0B801A7010E944E2A8C01B1
:10550000C6010E94AE29080F191FC8011F910F91F3
:10551000FF90EF90DF90CF900895CF92DF92EF92BF
:10552000FF920F931F93CF93DF93EC016A017B01EE
:105530002115310541F4E881F9810190F081E02DD8
:10554000642F09951FC02A303105D1F477FF17C0A9
:10555000E881F9810190F081E02D6DE209958C01DF
:1055600044275527BA014C195D096E097F09CE0100
:105570002AE00E94EA299801280F391F04C02AE076
:105580000E94EA299C01C901DF91CF911F910F91DF
:10559000FF90EF90DF90CF900895EF92FF920F93DE
:1055A0001F937C010E948D2A8C01C7010E94AE29A5
:1055B0009C01200F311FC9011F910F91FF90EF90A7
:1055C0000895EF92FF920F931F937B019A0100279A
:1055D000F7FC0095102FB801A7010E948D2A1F919A
:1055E0000F91FF90EF900895CF92DF92EF92FF928C
:1055F0000F931F936C017B019A010027F7FC009524
:10560000102FB801A7010E948D2A8C01C6010E94AB
:10561000AE29080F191FC8011F910F91FF90EF903D
:10562000DF90CF9008950E94CE2908957F928F92A7
:105630009F92AF92BF92CF92DF92EF92FF920F9321
:105640001F93CF93DF934C017A018B01722ECB0114
:10565000BA01A80197010E940033882321F0C401F8
:1056600066E973E021C0C0E0D0E057016801E8942A
:10567000D7F8C601B5012FEF3FEF4FE75FE70E9474
:105680000033882351F4C601B5012FEF3FEF4FE7F8
:105690005FE70E944030181614F0C1E0D0E0219777
:1056A00039F0C4016AE973E00E94CE29EC0193C08D
:1056B000C801B7012FEF3FEF4FE75FE40E943B3295
:1056C000181654F0C801B7012FEF3FEF4FE75FEC1A
:1056D0000E944030882324F4C4016EE973E0E4CFD3
:1056E000C801B70120E030E040E050E00E944030C7
:1056F00087FD03C0C0E0D0E00EC0D401ED91FC9165
:105700000190F081E02DC4016DE20995EC0117FBD9
:10571000109517F9109520E030E040E05FE3DD24BC
:105720000BC0CA01B90120E030E040E251E40E9420
:1057300047309B01AC01D394D71498F3C801B7014B
:105740000E94672F5B016C010E94B4307B018C01C9
:10575000C401B801A7012AE030E00E944E2AC80F18
:10576000D91F772039F0C40162EA73E00E94CE2984
:10577000C80FD91FC801B7010E94E0309B01AC01DE
:10578000C601B5010E94662F24C020E030E040E24F
:1057900051E40E9446327B018C010E94AF305B01D4
:1057A0006C01CC24B7FCC094DC2CC401B601A5016B
:1057B0002AE030E00E948D2AC80FD91FC601B5012A
:1057C0000E94E2309B01AC01C801B7010E94662F24
:1057D0007A947720D1F6CE01DF91CF911F910F916E
:1057E000FF90EF90DF90CF90BF90AF909F908F9001
:1057F0007F9008950E94162B0895EF92FF920F93C9
:105800001F937C010E94CE298C01C7010E94AE2902
:10581000080F191FC8011F910F91FF90EF90089575
:105820002F923F924F925F926F927F928F929F92B0
:10583000AF92BF92CF92DF92EF92FF920F931F939E
:10584000DF93CF93CDB7DEB73B014C0119012A019D
:105850006D897E898F89988D6A197B098C099D09CC
:10586000621A730A840A950AA40193010E941C33E8
:10587000E218F30804091509A80197010E947C3376
:105880002A0D3B1D4C1D5D1DB901CA01CF91DF9151
:105890001F910F91FF90EF90DF90CF90BF90AF904E
:1058A0009F908F907F906F905F904F903F902F9040
:1058B0000895FC019B01848195816817790728F47C
:1058C000608171816115710529F41092690669E69C
:1058D00076E002C0620F731FCB0108950F931F93F0
:1058E000CF93DF93EC018B016F5F7F4F88819981AC
:1058F0000E94852E009711F480E005C0998388836B
:105900001B830A8381E0DF91CF911F910F9108954E
:10591000CF93DF93EC0188819981892B29F08A81CB
:105920009B818617970760F4CE010E946E2C882316
:1059300041F08C819D81892B19F4E881F9811082D5
:1059400081E0DF91CF910895EF92FF920F931F9323
:10595000CF93DF93EC017B016C817D81E114F10435
:10596000C1F04115510599F08A01060F171FB801C2
:105970000E94882C882369F0888199812C813D813F
:10598000820F931FB7010E9454021D830C8381E094
:1059900001C080E0DF91CF911F910F91FF90EF90B8
:1059A0000895DF93CF9300D0CDB7DEB769831A8215
:1059B000BE016F5F7F4F41E050E00E94A42C0F902A
:1059C0000F90CF91DF910895CF93DF93EC01888101
:1059D0009981009711F00E94ED2D198218821D8285
:1059E0001C821B821A82DF91CF910895EF92FF9261
:1059F0000F931F93CF93DF93EC017B018A01BA01D0
:105A00000E94882C882321F4CE010E94E42C07C038
:105A10001D830C8388819981B7010E945402CE01B5
:105A2000DF91CF911F910F91FF90EF900895CF9349
:105A3000DF93EC01198218821B821A821D821C825C
:105A40001E826115710551F0DB010D900020E9F710
:105A50001197A61BB70BAD010E94F62CDF91CF91D9
:105A600008950F931F93182F092F6115710559F091
:105A7000DB010D900020E9F71197A61BB70BAD01D4
:105A80000E94F62C02C00E94E42C812F902F1F91BF
:105A90000F910895FC01808191810E94ED2D089560
:105AA0000F931F93CF93DF93BC018230910510F4C5
:105AB00062E070E0E0916C06F0916D0640E050E02D
:105AC000A0E0B0E024C08081918186179707D0F0D4
:105AD0008617970771F482819381109729F01396A6
